{
  "contractName": "CrowdFunding",
  "abi": [
    {
      "inputs": [
        {
          "name": "_goal",
          "type": "uint256"
        },
        {
          "name": "_timelimit",
          "type": "uint256"
        }
      ],
      "payable": true,
      "stateMutability": "payable",
      "type": "constructor"
    },
    {
      "constant": false,
      "inputs": [
        {
          "name": "_pfee",
          "type": "uint256"
        }
      ],
      "name": "participate",
      "outputs": [
        {
          "name": "",
          "type": "uint256"
        }
      ],
      "payable": true,
      "stateMutability": "payable",
      "type": "function"
    },
    {
      "constant": true,
      "inputs": [],
      "name": "effectivegoal",
      "outputs": [
        {
          "name": "",
          "type": "uint256"
        }
      ],
      "payable": false,
      "stateMutability": "view",
      "type": "function"
    },
    {
      "constant": false,
      "inputs": [],
      "name": "finalize",
      "outputs": [],
      "payable": false,
      "stateMutability": "nonpayable",
      "type": "function"
    },
    {
      "constant": false,
      "inputs": [],
      "name": "refund",
      "outputs": [],
      "payable": false,
      "stateMutability": "nonpayable",
      "type": "function"
    }
  ],
  "bytecode": "0x60806040526000600555600060065560405160408061099a8339810180604052810190808051906020019092919080519060200190929190505050336000806101000a81548173ffffffffffffffffffffffffffffffffffffffff021916908373ffffffffffffffffffffffffffffffffffffffff16021790555081600481905550426003819055508060035401600281905550600060078190555050506108ee806100ac6000396000f300608060405260043610610062576000357c0100000000000000000000000000000000000000000000000000000000900463ffffffff1680634bb278f314610067578063590e1ae31461007e578063845c930614610095578063c6f87e63146100c9575b600080fd5b34801561007357600080fd5b5061007c6100f4565b005b34801561008a57600080fd5b50610093610310565b005b6100b3600480360381019080803590602001909291905050506105c7565b6040518082815260200191505060405180910390f35b3480156100d557600080fd5b506100de6108af565b6040518082815260200191505060405180910390f35b426002548111151515610195576040517f08c379a00000000000000000000000000000000000000000000000000000000081526004018080602001828103825260258152602001807f43726f77642066756e64696e672053657373696f6e20697320616c726561647981526020017f206f76657200000000000000000000000000000000000000000000000000000081525060400191505060405180910390fd5b6006546004548110151515610212576040517f08c379a00000000000000000000000000000000000000000000000000000000081526004018080602001828103825260128152602001807f4e6f7420656e6f7567682062616c616e6365000000000000000000000000000081525060200191505060405180910390fd5b6000809054906101000a900473ffffffffffffffffffffffffffffffffffffffff1673ffffffffffffffffffffffffffffffffffffffff163373ffffffffffffffffffffffffffffffffffffffff161415156102d6576040517f08c379a000000000000000000000000000000000000000000000000000000000815260040180806020018281038252600f8152602001807f43616e27742062652063616c6c6564000000000000000000000000000000000081525060200191505060405180910390fd5b6000809054906101000a900473ffffffffffffffffffffffffffffffffffffffff1673ffffffffffffffffffffffffffffffffffffffff16ff5b60008060009054906101000a900473ffffffffffffffffffffffffffffffffffffffff1673ffffffffffffffffffffffffffffffffffffffff163373ffffffffffffffffffffffffffffffffffffffff16141515156103d7576040517f08c379a000000000000000000000000000000000000000000000000000000000815260040180806020018281038252601e8152602001807f42656e65666963696172792063616e6e6f74207061727469636970617465000081525060200191505060405180910390fd5b426002548110151515610452576040517f08c379a000000000000000000000000000000000000000000000000000000000815260040180806020018281038252601e8152602001807f43726f77642066756e64696e672073657373696f6e20676f696e67206f6e000081525060200191505060405180910390fd5b600654600454811015156104ce576040517f08c379a00000000000000000000000000000000000000000000000000000000081526004018080602001828103825260128152602001807f4e6f7420656e6f7567682062616c616e6365000000000000000000000000000081525060200191505060405180910390fd5b60086000600960003373ffffffffffffffffffffffffffffffffffffffff1673ffffffffffffffffffffffffffffffffffffffff168152602001908152602001600020548152602001908152602001600020549250600060086000600960003373ffffffffffffffffffffffffffffffffffffffff1673ffffffffffffffffffffffffffffffffffffffff168152602001908152602001600020548152602001908152602001600020819055503373ffffffffffffffffffffffffffffffffffffffff166108fc849081150290604051600060405180830381858888f193505050501580156105c1573d6000803e3d6000fd5b50505050565b6000806000809054906101000a900473ffffffffffffffffffffffffffffffffffffffff1673ffffffffffffffffffffffffffffffffffffffff163373ffffffffffffffffffffffffffffffffffffffff161415151561068f576040517f08c379a000000000000000000000000000000000000000000000000000000000815260040180806020018281038252601e8152602001807f42656e65666963696172792063616e6e6f74207061727469636970617465000081525060200191505060405180910390fd5b426003548110151515610730576040517f08c379a000000000000000000000000000000000000000000000000000000000815260040180806020018281038252602a8152602001807f43616e2774207061727469636970617465206265666f7265207468652073746181526020017f7274696e672074696d650000000000000000000000000000000000000000000081525060400191505060405180910390fd5b4260025481111515156107d1576040517f08c379a00000000000000000000000000000000000000000000000000000000081526004018080602001828103825260258152602001807f43726f77642066756e64696e672053657373696f6e20697320616c726561647981526020017f206f76657200000000000000000000000000000000000000000000000000000081525060400191505060405180910390fd5b60075492506001803390806001815401808255809150509060018203906000526020600020016000909192909190916101000a81548173ffffffffffffffffffffffffffffffffffffffff021916908373ffffffffffffffffffffffffffffffffffffffff1602179055505050600754600960003373ffffffffffffffffffffffffffffffffffffffff1673ffffffffffffffffffffffffffffffffffffffff168152602001908152602001600020819055506001600754016007819055508460055401600581905550600554600681905550829350505050919050565b60008060065460045403905080915050905600a165627a7a723058208fab910935a8d5aa9f4b558385b9deb25d040753e7106eb0424b6148366510220029",
  "source": "pragma solidity ^0.4.24;\n\n\ncontract CrowdFunding {\n    address private beneficiary;\n    address[] private funders;\n\n    uint private deadline;\n    uint private startParticipation;\n    uint private goal;\n    uint private totalRaised = 0;\n    uint private currentBalance=0;\n    uint private id;\n\n    mapping(uint => uint) private fundersIDFunding;\n    mapping(address => uint) private addressID;\n\n    modifier isbeneficiary() {\n        require(msg.sender == beneficiary, \"Can't be called\");\n        _;\n    }\n\n    modifier isnotbeneficiary() {\n        require(msg.sender != beneficiary, \"Beneficiary cannot participate\");\n        _;\n    }\n\n    modifier notbeforestarttime(uint ptime) {\n        require(ptime >= startParticipation, \"Can't participate before the starting time\");\n        _;\n    }\n\n    modifier notafterendtime(uint ptime) {\n        require(ptime <= deadline, \"Crowd funding Session is already over\");\n        _;\n    }\n\n    modifier onlyafterendtime(uint ptime) {\n        require(ptime >= deadline, \"Crowd funding session going on\");\n        _;\n    }\n\n    modifier morebalance(uint balance) {\n        require(balance >= goal, \"Not enough balance\");\n        _;\n    }\n\n    modifier lessbalance(uint balance) {\n        require(balance < goal, \"Not enough balance\");\n        _;\n    }\n\n    constructor(uint _goal, uint _timelimit)\n    public\n    payable {\n        beneficiary = msg.sender;\n        goal = _goal;\n        startParticipation = now;\n        deadline = startParticipation + _timelimit;\n        id = 0;\n    }\n\n    function participate(uint _pfee)\n    public\n    payable\n    isnotbeneficiary()\n    notbeforestarttime(now)\n    notafterendtime(now)\n    returns(uint) {\n        uint tempID = id;\n        funders.push(msg.sender) - 1;\n        addressID[msg.sender] = id;\n        id = id + 1;\n        totalRaised = totalRaised + _pfee;\n        currentBalance = totalRaised;\n        return tempID;\n    }\n\n    function effectivegoal()\n    public\n    view\n    returns(uint) {\n        uint te = goal - currentBalance;\n        return te;\n    }\n\n    function finalize()\n    public\n    notafterendtime(now)\n    morebalance(currentBalance)\n    isbeneficiary() {\n        selfdestruct(beneficiary);\n    }\n\n    function refund()\n    public\n    isnotbeneficiary()\n    onlyafterendtime(now)\n    lessbalance(currentBalance) {\n        uint temp = fundersIDFunding[addressID[msg.sender]];\n        fundersIDFunding[addressID[msg.sender]] = 0;\n        msg.sender.transfer(temp);\n    }\n}\n\n",
  "sourcePath": "/home/nemani/blockchain-crowdfunding-dapp/contracts/CrowdFunding.sol",
  "compiler": {
    "name": "solc",
    "version": "0.4.24+commit.e67f0147.Emscripten.clang"
  },
  "schemaVersion": "2.0.1",
  "updatedAt": "2018-11-13T19:46:03.869Z"
}